:04000000B7EF06F060
:10000800F29E2B6A9EA003D09E90010E2B6EF29258
:06001800F090F0921100CF
:10001E000B6A0A6A096A086A0E6A033408360450C3
:10002E00085E0550D8A0053C095E0650D8A0063CD7
:10003E000A5E0750D8A0073C0B5EE86AD8A0010EF6
:10004E000E5E0336070E0C6E0334083609360A367A
:10005E000B360E36045003A012D0085E0550D8A001
:10006E00053C095E0650D8A0063C0A5E0750D8A093
:10007E00073C0B5EE86AD8A0010E0E5E11D0082672
:10008E000550D8B0053C09260650D8B0063C0A26C5
:10009E000750D8B0073C0B26E86AD8B0010E0E26E2
:1000AE0003360C2ED1D70234083609360A360B36F3
:1000BE000E36045003A012D0085E0550D8A0053CA1
:1000CE00095E0650D8A0063C0A5E0750D8A0073C31
:1000DE000B5EE86AD8A0010E0E5E11D00826055000
:1000EE00D8B0053C09260650D8B0063C0A26075063
:1000FE00D8B0073C0B26E86AD8B0010E0E260236A1
:10010E00070E0C6E0234083609360A360B360E36DA
:10011E00045002A012D0085E0550D8A0053C095E1E
:10012E000650D8A0063C0A5E0750D8A0073C0B5ECE
:10013E00E86AD8A0010E0E5E11D008260550D8B080
:10014E00053C09260650D8B0063C0A260750D8B002
:10015E00073C0B26E86AD8B0010E0E2602360C2E8E
:10016E00D1D70134083609360A360B360E3604500E
:10017E0002A012D0085E0550D8A0053C095E0650BC
:10018E00D8A0063C0A5E0750D8A0073C0B5EE86A72
:10019E00D8A0010E0E5E11D008260550D8B0053C31
:1001AE0009260650D8B0063C0A260750D8B0073CA0
:1001BE000B26E86AD8B0010E0E260136070E0C6E1D
:1001CE000134083609360A360B360E36045001A0B5
:1001DE0012D0085E0550D8A0053C095E0650D8A086
:1001EE00063C0A5E0750D8A0073C0B5EE86AD8A012
:1001FE00010E0E5E11D008260550D8B0053C09261A
:10020E000650D8B0063C0A260750D8B0073C0B263D
:10021E00E86AD8B0010E0E2601360C2ED1D7003466
:10022E00083609360A360B360E36045001A012D0A7
:10023E00085E0550D8A0053C095E0650D8A0063CC5
:10024E000A5E0750D8A0073C0B5EE86AD8A0010EE4
:10025E000E5E11D008260550D8B0053C0926065072
:10026E00D8B0063C0A260750D8B0073C0B26E86AE1
:10027E00D8B0010E0E260036070E0C6E003408366E
:10028E0009360A360B360E36045000A012D0085E20
:10029E000550D8A0053C095E0650D8A0063C0A5E63
:1002AE000750D8A0073C0B5EE86AD8A0010E0E5E80
:1002BE0011D008260550D8B0053C09260650D8B0F6
:1002CE00063C0A260750D8B0073C0B26E86AD8B081
:1002DE00010E0E2600360C2ED1D700B00ED00450D3
:1002EE0008260550D8B0053C09260650D8B0063C65
:0C02FE000A260750D8B0073C0B2612005F
:10030A00086A096A100E0C6E013408360936045060
:10031A00085E0550D8A0053C095ED8B007D0045045
:10032A0008260550D8B0053C0926D8900036013673
:06033A000C2EEAD71200B0
:100340005706570657C001F057060150000803E250
:1003500000000000F7D700000000000000000000CF
:02036000120089
:1003620078D058B002D08A9801D08A88AED058B0DE
:1003720002D0899A01D0898AA8D058B002D089982F
:1003820001D08988A2D058B002D0899601D089863E
:100392009CD058B002D0899401D0898496D058B0AC
:1003A20002D0899201D0898290D058B002D08B9429
:1003B20001D08B848AD058B002D08B9601D08B8624
:1003C20084D058B002D08B9801D08B887ED058B0A0
:1003D20002D08B9A01D08B8A78D058B002D08B9CF5
:1003E20001D08B8C72D058B002D08B9E01D08B8EF4
:1003F2006CD058B002D08C9001D08C8066D058B0AE
:1004020002D08C9201D08C8260D058B002D08C94F1
:1004120001D08C845AD058B002D08C9601D08C86F0
:1004220054D058B002D08C9801D08C884ED058B09D
:1004320002D08C9A01D08C8A48D058B002D08C9CC1
:1004420001D08C8C42D058B002D08C9E01D08C8EC0
:100452003CD05750010A85E05750020A88E05750B5
:10046200030A8BE05750040A8EE05750050A91E0C8
:100472005750060A94E05750070A97E05750080A67
:100482009AE05750090A9DE057500A0AA0E05750D7
:100492000B0AA3E057500C0AA6E057500D0AA9E038
:1004A20057500E0AACE057500F0AAFE05750100AEF
:1004B200B2E05750110AB5E05750120AB8E057504F
:0C04C200130ABBE05750140ABEE0120001
:1004CE00E80E006E030E016E000E026E036E120039
:1004DE00220E0C6E086A096A0A6A0B6A0C06D8B4F8
:1004EE001FD0D8900B320A32093208320332023250
:1004FE0001320032D8A0F2D70C06D8B409D004507D
:10050E0008260550092206500A2207500B22EAD768
:10051E00045008260550092206500A2207500B22C5
:02052E001200B9
:0E053000010ED56EF294FD0ED76ED66A120043
:10053E00010E4B6E010E4B6E150E4B5C06E24BC060
:0C054E0057F0586A07DF4B2AF7D712005D
:04055A000400120087
:10055E00C282C2A201D0FDD7040E0C6E3D0E0D6EEE
:10056E000D2EFED70C2EFCD700000000C4CF03F0DA
:10057E00000E046E000E046E03C001F0006A00C08F
:10058E0003F001C004F0C3500012000E011200C0AF
:08059E0003F001C004F012009B
:1005A600A69C4CC0AAFF4BC0A9FFA69EA680A8CFBA
:0405B60000F012003F
:1005BA004BB002D0C29001D0C2804BB002D08A9612
:0605CA0001D08A86120038
:0E05D000010ED56EF294D90ED76ED66A1200C7
:1005DE004B6AA7DFD58E81B008D0F2A405D0D59E88
:1005EE00F294020E4B6E01D0F6D79BDFD58E290EFC
:1005FE000D6E0D2EFED7000081A018D0530E0D6E7D
:10060E000D2EFED781B004D04B6AD59EF2940DD03C
:10061E00010E4B6E81A008D0F2A405D0D59EF294A7
:10062E00020E4B6E01D0F6D7D59E02D0020E4B6E47
:06063E004BC000F01200A9
:1006440044DFE80E046E030E056E000E066E076EA0
:1006540044DF00C053F001C054F002C055F003C0A1
:1006640056F04BC004F04CC005F0000E066E076E49
:10067400D4DC00C053F001C054F002C055F003C0F4
:1006840056F000C005F001C006F002C007F003C038
:1006940008F00832073206320532089E0832073263
:1006A40006320532089E05C000F006C001F007C0FE
:1006B40002F008C003F00332023201320032039E1A
:1006C40000C04FF001C050F000DF4DC004F04EC038
:1006D40005F0000E066E076E00DF4FC009F050C033
:1006E4000AF0000E0B6E0C6E030E086E09C004F0C7
:1006F4000AC005F00BC006F00CC007F0085007E074
:1007040004360490053606360736FF0FF8D785DC25
:1007140000C053F001C054F002C055F003C056F0BD
:100724000A0E046E000E056E4FC000F050C001F0BA
:10073400EADD00C04FF001C050F0000E015C02E1A0
:10074400030E005C01E241D043C0E9FF44C0EAFF6C
:100754005650000808E15550000805E154500008BF
:1007640002E1535000082FE24250EF1250520DE0C4
:10077400516A526A000E525C02E15050515C05E22B
:10078400576ADCDD514A522AF5D74FC057F0D6DDFF
:100794004550EF1650520DE0516A526A000E525CF9
:1007A40002E15050515C05E2576AC8DD514A522AB1
:1007B400F5D74FC057F0C2DD010E535E000E545AF8
:0C07C400555A565AC5D74550EF16120082
:1007D000A6A202D00000FCD7A69C4CC0AAFF4BC02A
:1007E000A9FF4DC0A8FFA69EA684F2CF00F0F29EFE
:1007F000550EA76EAA0EA76EA68200BE02D0F29E6C
:0808000001D0F28EA694120053
:100808000900F5CFE6FF0006FBE10106F9E1120059
:0E0818000E0ECD6ECD8ACD88CE6ACF6A12004C
:1008260048C043F049C044F04AC001F0010E006ED2
:10083600015004E000360090FF0FFBD700C042F0E5
:10084600001E00C045F0120E4824E96E000E492035
:10085600EA6E0050EF16120EE95E0050EF16120017
:10086600D06AF26AD09EF26AF29EF28CF29A9D905B
:10087600F298F096F098F296F290F2949E90F29298
:06088600F090F092120058
:0A088C00C26A0E0EC16EC08E12008B
:10089600010E4B6E000E4C6E83DE00C021F0000E82
:1008A600226E040E0C6E3D0E0D6E0D2EFED70C2E16
:1008B600FCD70000000021C022F0216A020E4B6E18
:1008C600000E4C6E6DDE00502112000E2212040E38
:1008D6000C6E3D0E0D6E0D2EFED70C2EFCD70000B5
:1008E6000000030E4B6E000E4C6E5ADE00C01BF06D
:1008F600000E1C6E040E0C6E3D0E0D6E0D2EFED7F8
:100906000C2EFCD7000000001BC01CF01B6A040E56
:100916004B6E000E4C6E44DE00501B12000E1C1275
:10092600040E0C6E3D0E0D6E0D2EFED70C2EFCD752
:1009360000000000050E4B6E000E4C6E31DE00C04E
:1009460019F0000E1A6E040E0C6E3D0E0D6E0D2E75
:10095600FED70C2EFCD70000000019C01AF0196A49
:10096600060E4B6E000E4C6E1BDE00501912000E6A
:100976001A12040E0C6E3D0E0D6E0D2EFED70C2EA9
:10098600FCD700000000070E4B6E000E4C6E08DE12
:1009960000C01FF0000E206E040E0C6E3D0E0D6E94
:1009A6000D2EFED70C2EFCD7000000001FC020F035
:1009B6001F6A080E4B6E000E4C6EF2DD00501F12C1
:1009C600000E2012040E0C6E3D0E0D6E0D2EFED77F
:1009D6000C2EFCD700000000090E4B6E000E4C6E6C
:1009E600DFDD00C01DF0000E1E6E040E0C6E3D0E07
:1009F6000D6E0D2EFED70C2EFCD7000000001DC07C
:100A06001EF01D6A0A0E4B6E000E4C6EC9DD0050BC
:100A16001D12000E1E12040E0C6E3D0E0D6E0D2ED6
:0C0A2600FED70C2EFCD7000000001200D0
:0C0A320048B002D0CD9001D0CD80120061
:100A3E00486AC7DD020E0C6E9E0E0D6E0D2EFED791
:100A4E000C2EFCD7000081A00CD0010E486ED58E66
:100A5E0081A007D0F2A404D0D59EF294486A01D0AA
:080A6E00F7D748C000F01200A8
:100A7600010E4B6E9FDD020E0C6E9E0E0D6E0D2E40
:100A8600FED70C2EFCD7000065DD236A246A64DDE0
:100A960000C023F001C024F04B6A8CDD2450225C98
:100AA60002E12350215C03E2010E006E01D0006AD0
:020AB60012002C
:100AB80048500B0A13E149C057F0010E586E4DDC3F
:100AC800040E0C6E3D0E0D6E0D2EFED70C2EFCD7AF
:100AD8000000000049C057F0586A3FDC4850160A29
:100AE8002BE1010E2A6E030E2A5C1DE249C057F065
:100AF800010E586E32DC210E0C6E760E0D6E0D2E28
:100B0800FED70C2EFCD7000049C057F0586A25DCE8
:100B1800210E0C6E760E0D6E0D2EFED70C2EFCD708
:100B280000002A2AE0D7410E0C6EEE0E0D6E0D2E37
:100B3800FED70C2EFCD700004850210A1BE149C003
:100B480057F0010E586E09DCA30E0C6E550E0D6E93
:100B58000D2EFED70C2EFCD749C057F0586AB1ECC1
:100B680001F0BC0E4B6E020E4C6EF40E4D6E010E73
:100B78004E6E64DD4850580A2EE1010E2A6E040EAE
:100B88002A5C1FE249C057F0010E586EB1EC01F023
:100B9800210E0C6E760E0D6E0D2EFED70C2EFCD788
:100BA800000049C057F0586AB1EC01F0210E0C6EF4
:100BB800760E0D6E0D2EFED70C2EFCD700002A2ABD
:100BC800DED7820E0C6EDD0E0D6E0D2EFED70C2EAE
:080BD800FCD700000000120030
:100BE000010E4B6EEADC210E0C6E760E0D6E0D2E94
:100BF000FED70C2EFCD7000081B287D0AEDC236A72
:100C0000246AADDC00C023F001C024F0210E0C6E7C
:100C1000760E0D6E0D2EFED70C2EFCD70000245044
:100C2000225C02E12350215C06E3010E576E010EA7
:100C3000586EB1EC01F024501C5C02E123501B5CA7
:100C400006E3020E576E010E586EB1EC01F024500F
:100C50001A5C02E12350195C06E3030E576E010E85
:100C6000586EB1EC01F02450205C02E123501F5C6F
:100C700006E3040E576E010E586EB1EC01F02450DD
:100C80001E5C02E123501D5C06E3050E576E010E4B
:100C9000586EB1EC01F02450225C02E12350215C3B
:100CA00029E2050E2A6E010E2A5C15E32AC057F0D0
:100CB000010E586EB1EC01F0070E0C6E7D0E0D6E3C
:100CC0000D2EFED70C2EFCD72AC057F0586AB1EC77
:100CD00001F02A06E8D7010E576E010E586EB1ECEE
:100CE00001F0210E0C6E760E0D6E0D2EFED70C2E21
:100CF000FCD70000110E0C6E3A0E0D6E0D2EFED7B5
:100D00000C2EFCD700001BDC77D74B6A56DC120098
:0C0D100048B002D0F29E01D0F28E12001A
:100D1C000B0E2A6E1F0E2A5C12E22AC04BF0000E3C
:100D2C004C6E4D6A4FDD040E0C6E3D0E0D6E0D2E8D
:100D3C00FED70C2EFCD7000000002A2AEBD712009D
:100D4C00486A496A080E495C09E24832489E41DC0F
:100D5C000050010AD8B4488E492AF4D748C000F094
:020D6C00120073
:100D6E00010E926E070E936E946A956A8A9A9FECA4
:100D7E0002F00E0EC16EF18E6FDD81DD85DD4B6AE8
:100D8E0015DC8A96810E486E0F0E496E070E4A6E5E
:100D9E0043DD9FEC02F08A9AADEC02F036DD486A34
:100DAE0041DE486AAEDF2C6A2B6A010E2A6E2A508B
:100DBE00050816E32AC057F0010E586EB1EC01F08B
:100DCE001A0E0C6EF80E0D6E0D2EFED70C2EFCD7D5
:100DDE0000002AC057F0586AB1EC01F02A2AE7D772
:100DEE00ADEC02F00B0E2A6E1F0E2A5C24E20A0EE8
:100DFE002A5C006E016A000E015A2D0E0024466E0A
:100E0E00000E0120476E2AC04BF0000E4C6ED3EC44
:100E1E0002F046C0E1FF47C0E2FF00C0E6FF040E4D
:100E2E000C6E3D0E0D6E0D2EFED70C2EFCD7000057
:100E3E0000002A2AD9D781B40ED069DF580E4B6E26
:100E4E00020E4C6E640E4D6E000E4E6E22EC03F0D2
:100E5E0081B401D0FDD7ADEC02F081B20ED0580EA8
:100E6E004B6E020E4C6E640E4D6E000E4E6E22ECEC
:100E7E0003F081B202D0ADDEFCD781B42FD0580E74
:100E8E004B6E020E4C6E640E4D6E000E4E6E22ECCC
:100E9E0003F00B0E166E1F0E165C20E20A0E165C89
:100EAE00006E016A000E015A2D0E0024E96E000E2E
:100EBE000120EA6EEE5000080FE2580E486E0A0E40
:100ECE00165C496EF2DD410E0C6EEE0E0D6E0D2EA1
:100EDE00FED70C2EFCD70000162ADDD72B50010AA8
:100EEE00D8B42C2A2C50040AD8A4F8D02C6A486AFC
:100EFE0008DF8BDC486A96DD0B0E166E1F0E165C35
:100F0E00D8B09CD00A0E165C006E016A000E015A13
:100F1E002D0E0024E96E000E0120EA6EEE50000840
:100F2E00D8B08AD00A0E165C006E016A000E015A05
:100F3E002D0E0024E96E000E0120EA6EEECF00F0B9
:100F4E0000C015F00004016E01C015F0015001083B
:100F5E000FE20A0E165C006E016A000E015A2D0E8B
:100F6E000024E16E000E0120E26E15C0E6FF64D093
:100F7E0081B221D0F40E4B6E010E4C6EC80E4D6E2A
:100F8E00000E4E6E22EC03F00A0E165C006E016A25
:100F9E00000E015A2D0E0024E16E000E0120E26EAD
:100FAE00040EE66EA30E0C6E550E0D6E0D2EFED7B4
:100FBE000C2EFCD741D081B42CD0F40E4B6E010E0A
:100FCE004C6EC80E4D6E000E4E6E22EC03F00A0EE5
:100FDE00165C006E016A000E015A2D0E0024E16EA1
:100FEE00000E0120E26EE66A16C04BF0000E4C6E4B
:100FFE004D6AE8EC03F0020E0B6EE70E0C6E000E5F
:10100E000D6E0D2EFED70C2EFCD70B2EFAD7000030
:10101E0013D0580E4B6E020E4C6E640E4D6E000EBB
:10102E004E6E22EC03F0580E486E0A0E165C496E98
:10103E003CDDADEC02F09CD7162A60D7186A14DDA1
:10104E0000C018F00050010A49E1186A050E2A6E18
:10105E00010E2A5C19E32AC057F0010E586EB1EC4E
:10106E0001F0640E2A02F3CF4BF0F4CF4CF01E0EBB
:10107E004D6E000E4E6E22EC03F02AC057F0586AE9
:10108E00B1EC01F02A06E4D7010E576E010E586E30
:10109E00B1EC01F0580E4B6E020E4C6EC80E4D6E3A
:1010AE00000E4E6E22EC03F09FEC02F081B201D0E6
:1010BE0003D0ADEC02F0CAD7580E4B6E020E4C6E3A
:1010CE00C80E4D6E000E4E6E22EC03F0A30E0C6E8B
:1010DE00550E0D6E0D2EFED70C2EFCD781A067D1AE
:1010EE00A7DC0050010AD8A462D129DE00C017F097
:1010FE0026DE00C026F023DE00C025F020DE00C074
:10110E0029F026501724016E026A000E0222255085
:10111E000124036E000E0220046E000E041802E17C
:10112E0000500318D8A443D12650580A60E12D0E62
:10113E00E96E000EEA6E1750E926D8B0EA2AEE5094
:10114E00000A55E1040E0C6E3D0E0D6E0D2EFED7EF
:10115E000C2EFCD700000000276A286A000E285CBF
:10116E0002E1140E275C35E281B229D0F40E4B6EEB
:10117E00010E4C6EC80E4D6E000E4E6E22EC03F03C
:10118E002D0EE16E000EE26E1750E126D8B0E22A67
:10119E00040EE66E0A0E17244B6E4C6A000E4C229D
:1011AE00040E4D6EE8EC03F0040E0C6E3D0E0D6E4B
:1011BE000D2EFED70C2EFCD7000000000AD026C044
:1011CE0048F017C049F071DC274A282AADEC02F02E
:1011DE00C5D7020E0B6E450E0C6EA90E0D6E0D2EA2
:1011EE00FED70C2EFCD70B2EFAD7000000002D0ECA
:1011FE00E96E000EEA6E1750E926D8B0EA2AEE50D4
:10120E000008D8B0D4D026500B0A76E12D0EE16E30
:10121E00000EE26E1750E126D8B0E22A040EE66EFA
:10122E0026C048F017C049F040DC9FEC02F0255074
:10123E00080A62E18A8A81B215D0580E4B6E020EF0
:10124E004C6E640E4D6E000E4E6E22EC03F02D0EA3
:10125E00E16E000EE26E1750E126D8B0E22A040EBF
:10126E00E66E3CD081B427D0580E4B6E020E4C6EFB
:10127E00640E4D6E000E4E6E22EC03F02D0EE16EDE
:10128E00000EE26E1750E126D8B0E22AE66A0A0E88
:10129E0017244B6E4C6A000E4C224D6AE8EC03F09C
:1012AE00040E0C6E3D0E0D6E0D2EFED70C2EFCD7C1
:1012BE000000000013D0BC0E4B6E020E4C6E640E7E
:1012CE004D6E000E4E6E22EC03F0160E486E17C0D9
:1012DE0049F05CEC05F0ADEC02F0ADD78A9A020E47
:1012EE000B6EE70E0C6E000E0D6E0D2EFED70C2E35
:1012FE00FCD70B2EFAD700002650210A58E18A8A15
:10130E0081B215D0580E4B6E020E4C6E640E4D6EA1
:10131E00000E4E6E22EC03F02D0EE16E000EE26E0C
:10132E001750E126D8B0E22A040EE66E32D081B410
:10133E0027D0580E4B6E020E4C6E640E4D6E000E84
:10134E004E6E22EC03F02D0EE16E000EE26E175083
:10135E00E126D8B0E22AE66A0A0E17244B6E4C6AD2
:10136E00000E4C224D6AE8EC03F0040E0C6E3D0E9E
:10137E000D6E0D2EFED70C2EFCD70000000009D0EE
:10138E0026C048F017C049F05CEC05F0ADEC02F059
:10139E00B7D78A9A020E0B6EE70E0C6E000E0D6E0C
:1013AE000D2EFED70C2EFCD70B2EFAD70000ADEC6F
:1013BE0002F0F292F090F092F29A9D80F288F0860E
:1013CE00F088010E486E19EC05F0010E486E99DC9E
:0813DE000300000040D5FFD719
:020000040030CA
:0D000100081F1DFF8281FF3FC03FE03F4010
:00000001FF
