:02000000842951
:10000800DF00030E8301BC000A08BD008A018B13C0
:100018008B103D088A003C0E8300DF0E5F0E09003E
:0C00280007308312DD00DD0B17280800F4
:10003400831205140D30DC00FB30DD00DD0B2028BD
:10004400DC0B20280000000005100230DC004B30DF
:0C005400DD00DD0B2B28DC0B2B28080046
:100060008312C60108304602031863284608D000F0
:100070004508D100500803194128D10CD113FF3E87
:100080003B28511C4F2805140330DC009730DD005D
:10009000DD0B4828DC0B4828000000005828051418
:1000A0000230DC004B30DD00DD0B5428DC0B542823
:1000B00005100230DC004B30DD00DD0B5D28DC0B71
:0800C0005D28C60A3228080081
:1000C800C33083129F052008D000D00D5010D00DEA
:1000D800501050089F0414209F149F1C752800007E
:1000E80071281E08D100D00183161E08D0040030E4
:0400F800D104080027
:1000FC0083120313D801D9011030DC00510DD80D37
:10010C00D90D5408D8025508031C550FD9020318F1
:10011C0096285408D80755080318550FD90703100B
:0A012C00D00DD10DDC0B8428080073
:040136006400080059
:10013A0064308312AD000030AE002030AF000030D2
:10014A00C3309F05F0309F05F03083169F04831259
:06015A009F171F140800AE
:0C01600083123F088A003E08820008005D
:10016C008312C101C201C301C40185160230DC0037
:10017C004B30DD00DD0BC028DC0BC028A701A8012B
:10018C0000302802031DCC28053027020318E8286C
:10019C000330A00064205008C3005108C400023092
:1001AC00DC004B30DD00DD0BD928DC0BD9289B2083
:1001BC004308C10744080318013EC207A70A0319E4
:1001CC00A80AC628831285120530D4000030D50049
:1001DC004108D0004208D1007E205008C1005108CF
:0401EC00C200080045
:1001F00083124108A20041082307A1002608A10795
:100200001A202308C50030202208C5003020260807
:0C021000C50030202108C5003020080087
:10021C00B0208A110A128000840ABE0A0319BF0A90
:08022C00D003031D0E29080098
:100234008312051D3F299B20A601A401A5010030BE
:100244002502031D27290630240203183F292130E3
:10025400C100F8200330DB008A30DC005530DD00BB
:10026400DD0B3229DC0B3229DB0B322900000000C4
:0C0274009B20A40A0319A50A21290800F8
:100280009D20B6205008B4005108B5000830A600E3
:1002900051083302031D4E2950083202031C522913
:1002A0000B30A60035083702031D582934083602E2
:1002B000031C5C291630A60035083B02031D622989
:1002C00034083A02031C66292130A6003508390299
:1002D000031D6C2934083802031C70292C30A60039
:1002E00035082A02031D762934082902031C7A29BD
:0602F0003730A6000800F3
:1002F6008312400883169B009C131C141A08D00016
:020306000800ED
:100308008316051085100515051685128F30810096
:100318008117950107308312990083169913831268
:100328001F138D309F00503083169F008312900159
:10033800051085108512831601170B168B100B17E5
:10034800AB01AC01B001B101831205109D20C001C1
:100358007B215008A3000130C0007B215008B20067
:10036800B3010D30DC00FB30DD00DD0BB929DC0BFF
:10037800B929000000003208B300B2010230C00001
:100388007B215008B2040030B3040D30DC00FB3090
:10039800DD00DD0BCD29DC0BCD290000000003308A
:1003A800C0007B215008B600B7010D30DC00FB30DF
:1003B800DD00DD0BDD29DC0BDD290000000036083F
:1003C800B700B6010430C0007B215008B6040030E5
:1003D800B7040D30DC00FB30DD00DD0BF129DC0B50
:1003E800F129000000000530C0007B215008BA0048
:1003F800BB010D30DC00FB30DD00DD0B012ADC0B1E
:10040800012A000000003A08BB00BA010630C0000B
:100418007B215008BA040030BB040D30DC00FB30EF
:10042800DD00DD0B152ADC0B152A00000000073063
:10043800C0007B215008B800B9010D30DC00FB304A
:10044800DD00DD0B252ADC0B252A0000000038081A
:10045800B900B8010830C0007B215008B80400304A
:10046800B9040D30DC00FB30DD00DD0B392ADC0B74
:10047800392A000000000930C0007B215008A9007B
:10048800AA010D30DC00FB30DD00DD0B492ADC0B56
:10049800492A000000002908AA00A9010A30C00062
:1004A8007B215008A9040030AA040D30DC00FB3081
:1004B800DD00DD0B5D2ADC0B5D2A00000000033047
:1004C800DB008A30DC005530DD00DD0B692ADC0BEF
:1004D800692ADB0B692A000000009B200330DB003F
:1004E8008A30DC005530DD00DD0B782ADC0B782AF9
:1004F800DB0B782A000000009B2083120510A60160
:100508009B2085148230DC00DD30DD00DD0B8A2A7B
:10051800DC0B8A2A000000005830C100F820851042
:100528000330DB008A30DC005530DD00DD0B9A2A11
:10053800DC0B9A2ADB0B9A2A000000009B20033070
:10054800DB008A30DC005530DD00DD0BA92ADC0B2E
:10055800A92ADB0BA92A000000009B208514402152
:100568008230DC00DD30DD00DD0BB82ADC0BB82A78
:1005780000000000A401A50100302502031DC62AC1
:10058800033024020318D92A0B30C100F820413067
:10059800DC00EE30DD00DD0BCF2ADC0BCF2A0000BB
:1005A8009B20A40A0319A50AC02A85109B200510C0
:1005B8008B17630000008B131A21AB0A0319AC0ACE
:1005C80000302C06031DEA2A18302B06031D0F2BBA
:1005D800AB01AC0185144021A401A501003025021E
:1005E800031DF82A0330240203180B2B0B30C1001B
:1005F800F8204130DC00EE30DD00DD0B012BDC0B98
:10060800012B00009B20A40A0319A50AF22A8510D1
:10061800B00A0319B10A2C083106031D152B30083E
:100628002B06031D452B85144021A401A50100308C
:100638002502031D212B033024020318342B0B3011
:10064800C100F8204130DC00EE30DD00DD0B2A2B44
:10065800DC0B2A2B00009B20A40A0319A50A1B2BDC
:1006680085102308013ED100D2010318D20A3108AF
:100678005206031D412B51083006031D452BB001BE
:06068800B101DA2A462B45
:02400E00BC31C3
:00000001FF
